{
  "_format": "hh-sol-artifact-1",
  "contractName": "TimeMarketplaceFHE",
  "sourceName": "contracts/index.sol",
  "abi": [
    {
      "inputs": [
        {
          "internalType": "address",
          "name": "_treasury",
          "type": "address"
        }
      ],
      "stateMutability": "nonpayable",
      "type": "constructor"
    },
    {
      "inputs": [
        {
          "internalType": "address",
          "name": "owner",
          "type": "address"
        }
      ],
      "name": "OwnableInvalidOwner",
      "type": "error"
    },
    {
      "inputs": [
        {
          "internalType": "address",
          "name": "account",
          "type": "address"
        }
      ],
      "name": "OwnableUnauthorizedAccount",
      "type": "error"
    },
    {
      "inputs": [],
      "name": "ReentrancyGuardReentrantCall",
      "type": "error"
    },
    {
      "anonymous": false,
      "inputs": [
        {
          "indexed": true,
          "internalType": "address",
          "name": "by",
          "type": "address"
        },
        {
          "indexed": false,
          "internalType": "bool",
          "name": "enabled",
          "type": "bool"
        }
      ],
      "name": "FHEEnabled",
      "type": "event"
    },
    {
      "anonymous": false,
      "inputs": [
        {
          "indexed": true,
          "internalType": "uint256",
          "name": "offerId",
          "type": "uint256"
        },
        {
          "indexed": true,
          "internalType": "address",
          "name": "creator",
          "type": "address"
        },
        {
          "indexed": false,
          "internalType": "string",
          "name": "title",
          "type": "string"
        },
        {
          "indexed": false,
          "internalType": "uint256",
          "name": "publicPrice",
          "type": "uint256"
        },
        {
          "indexed": false,
          "internalType": "uint256",
          "name": "duration",
          "type": "uint256"
        },
        {
          "indexed": false,
          "internalType": "uint256",
          "name": "slots",
          "type": "uint256"
        }
      ],
      "name": "OfferCreated",
      "type": "event"
    },
    {
      "anonymous": false,
      "inputs": [
        {
          "indexed": true,
          "internalType": "uint256",
          "name": "offerId",
          "type": "uint256"
        },
        {
          "indexed": true,
          "internalType": "address",
          "name": "creator",
          "type": "address"
        }
      ],
      "name": "OfferDeactivated",
      "type": "event"
    },
    {
      "anonymous": false,
      "inputs": [
        {
          "indexed": true,
          "internalType": "uint256",
          "name": "offerId",
          "type": "uint256"
        },
        {
          "indexed": true,
          "internalType": "address",
          "name": "buyer",
          "type": "address"
        },
        {
          "indexed": false,
          "internalType": "uint256",
          "name": "slots",
          "type": "uint256"
        },
        {
          "indexed": false,
          "internalType": "uint256",
          "name": "totalPrice",
          "type": "uint256"
        },
        {
          "indexed": false,
          "internalType": "uint256",
          "name": "slotsLeft",
          "type": "uint256"
        }
      ],
      "name": "OfferPurchased",
      "type": "event"
    },
    {
      "anonymous": false,
      "inputs": [
        {
          "indexed": true,
          "internalType": "address",
          "name": "previousOwner",
          "type": "address"
        },
        {
          "indexed": true,
          "internalType": "address",
          "name": "newOwner",
          "type": "address"
        }
      ],
      "name": "OwnershipTransferred",
      "type": "event"
    },
    {
      "inputs": [
        {
          "internalType": "uint256",
          "name": "",
          "type": "uint256"
        }
      ],
      "name": "activeOfferIds",
      "outputs": [
        {
          "internalType": "uint256",
          "name": "",
          "type": "uint256"
        }
      ],
      "stateMutability": "view",
      "type": "function"
    },
    {
      "inputs": [
        {
          "internalType": "uint256",
          "name": "_offerId1",
          "type": "uint256"
        },
        {
          "internalType": "uint256",
          "name": "_offerId2",
          "type": "uint256"
        }
      ],
      "name": "comparePrices",
      "outputs": [
        {
          "internalType": "ebool",
          "name": "",
          "type": "bytes32"
        }
      ],
      "stateMutability": "nonpayable",
      "type": "function"
    },
    {
      "inputs": [
        {
          "internalType": "string",
          "name": "_title",
          "type": "string"
        },
        {
          "internalType": "string",
          "name": "_description",
          "type": "string"
        },
        {
          "internalType": "uint256",
          "name": "_price",
          "type": "uint256"
        },
        {
          "internalType": "uint256",
          "name": "_duration",
          "type": "uint256"
        },
        {
          "internalType": "uint256",
          "name": "_slots",
          "type": "uint256"
        }
      ],
      "name": "createOffer",
      "outputs": [],
      "stateMutability": "nonpayable",
      "type": "function"
    },
    {
      "inputs": [
        {
          "internalType": "string",
          "name": "_title",
          "type": "string"
        },
        {
          "internalType": "string",
          "name": "_description",
          "type": "string"
        },
        {
          "internalType": "uint256",
          "name": "_publicPrice",
          "type": "uint256"
        },
        {
          "internalType": "uint256",
          "name": "_duration",
          "type": "uint256"
        },
        {
          "internalType": "uint256",
          "name": "_slots",
          "type": "uint256"
        },
        {
          "internalType": "euint32",
          "name": "_encryptedPrice",
          "type": "bytes32"
        },
        {
          "internalType": "euint32",
          "name": "_encryptedDuration",
          "type": "bytes32"
        },
        {
          "internalType": "euint32",
          "name": "_encryptedSlots",
          "type": "bytes32"
        }
      ],
      "name": "createOfferWithFHE",
      "outputs": [],
      "stateMutability": "nonpayable",
      "type": "function"
    },
    {
      "inputs": [
        {
          "internalType": "uint256",
          "name": "_offerId",
          "type": "uint256"
        }
      ],
      "name": "deactivateOffer",
      "outputs": [],
      "stateMutability": "nonpayable",
      "type": "function"
    },
    {
      "inputs": [],
      "name": "disableFHE",
      "outputs": [],
      "stateMutability": "nonpayable",
      "type": "function"
    },
    {
      "inputs": [],
      "name": "emergencyWithdraw",
      "outputs": [],
      "stateMutability": "nonpayable",
      "type": "function"
    },
    {
      "inputs": [],
      "name": "enableFHE",
      "outputs": [],
      "stateMutability": "nonpayable",
      "type": "function"
    },
    {
      "inputs": [],
      "name": "fheEnabled",
      "outputs": [
        {
          "internalType": "bool",
          "name": "",
          "type": "bool"
        }
      ],
      "stateMutability": "view",
      "type": "function"
    },
    {
      "inputs": [],
      "name": "getActiveOfferIds",
      "outputs": [
        {
          "internalType": "uint256[]",
          "name": "",
          "type": "uint256[]"
        }
      ],
      "stateMutability": "view",
      "type": "function"
    },
    {
      "inputs": [],
      "name": "getContractStats",
      "outputs": [
        {
          "internalType": "uint256",
          "name": "",
          "type": "uint256"
        },
        {
          "internalType": "uint256",
          "name": "",
          "type": "uint256"
        },
        {
          "internalType": "uint256",
          "name": "",
          "type": "uint256"
        },
        {
          "internalType": "uint256",
          "name": "",
          "type": "uint256"
        }
      ],
      "stateMutability": "view",
      "type": "function"
    },
    {
      "inputs": [
        {
          "internalType": "uint256",
          "name": "_offerId",
          "type": "uint256"
        }
      ],
      "name": "getEncryptedOfferData",
      "outputs": [
        {
          "internalType": "euint32",
          "name": "",
          "type": "bytes32"
        },
        {
          "internalType": "euint32",
          "name": "",
          "type": "bytes32"
        },
        {
          "internalType": "euint32",
          "name": "",
          "type": "bytes32"
        }
      ],
      "stateMutability": "view",
      "type": "function"
    },
    {
      "inputs": [],
      "name": "getPlatformFee",
      "outputs": [
        {
          "internalType": "uint256",
          "name": "",
          "type": "uint256"
        }
      ],
      "stateMutability": "view",
      "type": "function"
    },
    {
      "inputs": [],
      "name": "getTreasury",
      "outputs": [
        {
          "internalType": "address",
          "name": "",
          "type": "address"
        }
      ],
      "stateMutability": "view",
      "type": "function"
    },
    {
      "inputs": [
        {
          "internalType": "address",
          "name": "_user",
          "type": "address"
        }
      ],
      "name": "getUserOffers",
      "outputs": [
        {
          "internalType": "uint256[]",
          "name": "",
          "type": "uint256[]"
        }
      ],
      "stateMutability": "view",
      "type": "function"
    },
    {
      "inputs": [
        {
          "internalType": "address",
          "name": "_user",
          "type": "address"
        }
      ],
      "name": "getUserPurchases",
      "outputs": [
        {
          "internalType": "uint256[]",
          "name": "",
          "type": "uint256[]"
        }
      ],
      "stateMutability": "view",
      "type": "function"
    },
    {
      "inputs": [],
      "name": "isFHEEnabled",
      "outputs": [
        {
          "internalType": "bool",
          "name": "",
          "type": "bool"
        }
      ],
      "stateMutability": "view",
      "type": "function"
    },
    {
      "inputs": [],
      "name": "nextOfferId",
      "outputs": [
        {
          "internalType": "uint256",
          "name": "",
          "type": "uint256"
        }
      ],
      "stateMutability": "view",
      "type": "function"
    },
    {
      "inputs": [],
      "name": "nextPurchaseId",
      "outputs": [
        {
          "internalType": "uint256",
          "name": "",
          "type": "uint256"
        }
      ],
      "stateMutability": "view",
      "type": "function"
    },
    {
      "inputs": [
        {
          "internalType": "uint256",
          "name": "",
          "type": "uint256"
        }
      ],
      "name": "offers",
      "outputs": [
        {
          "internalType": "uint256",
          "name": "id",
          "type": "uint256"
        },
        {
          "internalType": "address",
          "name": "creator",
          "type": "address"
        },
        {
          "internalType": "string",
          "name": "title",
          "type": "string"
        },
        {
          "internalType": "string",
          "name": "description",
          "type": "string"
        },
        {
          "internalType": "uint256",
          "name": "publicPrice",
          "type": "uint256"
        },
        {
          "internalType": "uint256",
          "name": "duration",
          "type": "uint256"
        },
        {
          "internalType": "uint256",
          "name": "slots",
          "type": "uint256"
        },
        {
          "internalType": "uint256",
          "name": "availableSlots",
          "type": "uint256"
        },
        {
          "internalType": "bool",
          "name": "isActive",
          "type": "bool"
        },
        {
          "internalType": "uint256",
          "name": "createdAt",
          "type": "uint256"
        },
        {
          "internalType": "uint256",
          "name": "expiresAt",
          "type": "uint256"
        },
        {
          "internalType": "euint32",
          "name": "encryptedPrice",
          "type": "bytes32"
        },
        {
          "internalType": "euint32",
          "name": "encryptedDuration",
          "type": "bytes32"
        },
        {
          "internalType": "euint32",
          "name": "encryptedSlots",
          "type": "bytes32"
        }
      ],
      "stateMutability": "view",
      "type": "function"
    },
    {
      "inputs": [],
      "name": "owner",
      "outputs": [
        {
          "internalType": "address",
          "name": "",
          "type": "address"
        }
      ],
      "stateMutability": "view",
      "type": "function"
    },
    {
      "inputs": [],
      "name": "platformFee",
      "outputs": [
        {
          "internalType": "uint256",
          "name": "",
          "type": "uint256"
        }
      ],
      "stateMutability": "view",
      "type": "function"
    },
    {
      "inputs": [
        {
          "internalType": "uint256",
          "name": "_offerId",
          "type": "uint256"
        },
        {
          "internalType": "uint256",
          "name": "_slots",
          "type": "uint256"
        }
      ],
      "name": "purchaseOffer",
      "outputs": [],
      "stateMutability": "payable",
      "type": "function"
    },
    {
      "inputs": [
        {
          "internalType": "uint256",
          "name": "",
          "type": "uint256"
        }
      ],
      "name": "purchases",
      "outputs": [
        {
          "internalType": "uint256",
          "name": "offerId",
          "type": "uint256"
        },
        {
          "internalType": "address",
          "name": "buyer",
          "type": "address"
        },
        {
          "internalType": "uint256",
          "name": "slots",
          "type": "uint256"
        },
        {
          "internalType": "uint256",
          "name": "totalPrice",
          "type": "uint256"
        },
        {
          "internalType": "uint256",
          "name": "timestamp",
          "type": "uint256"
        }
      ],
      "stateMutability": "view",
      "type": "function"
    },
    {
      "inputs": [],
      "name": "renounceOwnership",
      "outputs": [],
      "stateMutability": "nonpayable",
      "type": "function"
    },
    {
      "inputs": [],
      "name": "totalOffersCreated",
      "outputs": [
        {
          "internalType": "uint256",
          "name": "",
          "type": "uint256"
        }
      ],
      "stateMutability": "view",
      "type": "function"
    },
    {
      "inputs": [],
      "name": "totalPurchases",
      "outputs": [
        {
          "internalType": "uint256",
          "name": "",
          "type": "uint256"
        }
      ],
      "stateMutability": "view",
      "type": "function"
    },
    {
      "inputs": [],
      "name": "totalVolume",
      "outputs": [
        {
          "internalType": "uint256",
          "name": "",
          "type": "uint256"
        }
      ],
      "stateMutability": "view",
      "type": "function"
    },
    {
      "inputs": [
        {
          "internalType": "address",
          "name": "newOwner",
          "type": "address"
        }
      ],
      "name": "transferOwnership",
      "outputs": [],
      "stateMutability": "nonpayable",
      "type": "function"
    },
    {
      "inputs": [],
      "name": "treasury",
      "outputs": [
        {
          "internalType": "address",
          "name": "",
          "type": "address"
        }
      ],
      "stateMutability": "view",
      "type": "function"
    },
    {
      "inputs": [
        {
          "internalType": "uint256",
          "name": "_newFee",
          "type": "uint256"
        }
      ],
      "name": "updatePlatformFee",
      "outputs": [],
      "stateMutability": "nonpayable",
      "type": "function"
    },
    {
      "inputs": [
        {
          "internalType": "address",
          "name": "_newTreasury",
          "type": "address"
        }
      ],
      "name": "updateTreasury",
      "outputs": [],
      "stateMutability": "nonpayable",
      "type": "function"
    },
    {
      "inputs": [
        {
          "internalType": "address",
          "name": "",
          "type": "address"
        },
        {
          "internalType": "uint256",
          "name": "",
          "type": "uint256"
        }
      ],
      "name": "userOffers",
      "outputs": [
        {
          "internalType": "uint256",
          "name": "",
          "type": "uint256"
        }
      ],
      "stateMutability": "view",
      "type": "function"
    },
    {
      "inputs": [
        {
          "internalType": "address",
          "name": "",
          "type": "address"
        },
        {
          "internalType": "uint256",
          "name": "",
          "type": "uint256"
        }
      ],
      "name": "userPurchases",
      "outputs": [
        {
          "internalType": "uint256",
          "name": "",
          "type": "uint256"
        }
      ],
      "stateMutability": "view",
      "type": "function"
    }
  ],
  "bytecode": "0x60803461012b57601f6200237338819003918201601f19168301916001600160401b0383118484101761012f5780849260209460405283398101031261012b57516001600160a01b038082169182900361012b573315610113575f543360018060a01b03198216175f55604051913391167f8be0079c531659141344cd1fd0a4f28419497f9722a3daafe3b4186f6b6457e05f80a360018055600160025560016003556101f4600c55600d549082156100d157506001600160a81b03191617600d5560405161222f9081620001448239f35b62461bcd60e51b815260206004820152601860248201527f496e76616c6964207472656173757279206164647265737300000000000000006044820152606490fd5b604051631e4fbdf760e01b81525f6004820152602490fd5b5f80fd5b634e487b7160e01b5f52604160045260245ffdfe60806040526004361015610011575f80fd5b5f3560e01c80630b5e1f3f146119f457806316df4aec146119d757806323b4a7a3146119ba57806326232a2e1461120d5780632cf27455146119425780633b19e84a1461168a57806354f2bbd6146119195780635962a941146118fc5780635ce30fa4146116ec5780635f5d0655146116cf5780635f81a57c146116b257806361d027b31461168a578063661d2c2c1461161457806367ee89b11461122a5780636ea8bc101461120d578063715018a6146111b65780637f51bb1f1461112a5780638392fe31146110cd5780638a72ea6a14610fd25780638da5cb5b14610fab5780639793acba146107de578063aa0b598814610f44578063bc2ea4f114610ea2578063bd5fec6514610e59578063c19a3cea14610dbc578063c69d041814610952578063c6e5d8f6146108cc578063c8798c851461085a578063cf2c033414610803578063cfa30828146107de578063db2e21bc14610729578063dfe6b5d6146106f3578063f21bc91a146102185763f2fde38b1461018f575f80fd5b34610214576020366003190112610214576101a8611bc7565b6101b061213a565b6001600160a01b039081169081156101fc575f54826001600160601b0360a01b8216175f55167f8be0079c531659141344cd1fd0a4f28419497f9722a3daafe3b4186f6b6457e05f80a3005b604051631e4fbdf760e01b81525f6004820152602490fd5b5f80fd5b34610214576101003660031901126102145760043567ffffffffffffffff81116102145761024a903690600401611c38565b60243567ffffffffffffffff81116102145761026a903690600401611c38565b610272612117565b61028360ff600d5460a01c16611dd5565b61028f82511515611e16565b61029b81511515611e5a565b6102a86044351515611ea6565b60643515906102b78215611ef2565b6102c46084351515611f3e565b600254916102d183611f8a565b60025560643562015180818102929183041417156106df576102f39042611fab565b6040519161030083611bdd565b8383523360208401528460408401526060830152604435608083015260643560a083015260843560c083015260843560e083015260016101008301524261012083015261014082015260a43561016082015260c43561018082015260e4356101a0820152815f52600460205260405f2090805182556001820160018060a01b036020830151166001600160601b0360a01b825416179055604081015180519067ffffffffffffffff82116106025781906103bd6002860154611c7e565b601f811161068f575b50602090601f8311600114610621575f92610616575b50508160011b915f199060031b1c19161760028301555b606081015180519067ffffffffffffffff8211610602576104176003850154611c7e565b601f81116105be575b50602090601f831160011461054c579180600d94926101a0945f92610541575b50508160011b915f199060031b1c19161760038501555b6080810151600485015560a0810151600585015560c0810151600685015560e0810151600785015561049f6101008201511515600886019060ff801983541691151516179055565b6101208101516009850155610140810151600a850155610160810151600b850155610180810151600c8501550151910155335f5260066020526104e58160405f20611ff3565b6104ee81611fb8565b6104f9600954611f8a565b6009557f6048132349b4755c4106fba6b9fb9a3cc8d0361fa219cb21bebc1b2c60a8d9bb60405180610538339560843590606435906044359085612016565b0390a360018055005b015190508880610440565b90600385015f5260205f20915f5b601f19851681106105a6575092600d94926001926101a09583601f1981161061058e575b505050811b016003850155610457565b01515f1960f88460031b161c1916905588808061057e565b9192602060018192868501518155019401920161055a565b600385015f5260205f20601f840160051c8101602085106105fb575b601f830160051c820181106105f0575050610420565b5f81556001016105da565b50806105da565b634e487b7160e01b5f52604160045260245ffd5b0151905086806103dc565b9250600285015f5260205f20905f935b601f1984168510610674576001945083601f1981161061065c575b505050811b0160028301556103f3565b01515f1960f88460031b161c1916905586808061064c565b81810151835560209485019460019093019290910190610631565b909150600285015f5260205f20601f840160051c8101602085106106d8575b90849392915b601f830160051c820181106106ca5750506103c6565b5f81558594506001016106b4565b50806106ae565b634e487b7160e01b5f52601160045260245ffd5b34610214575f366003190112610214576080600954600a54600b5460085491604051938452602084015260408301526060820152f35b34610214575f3660031901126102145761074161213a565b4780156107a2575f8080809360018060a01b038254165af161076161204b565b501561076957005b60405162461bcd60e51b815260206004820152601160248201527015da5d1a191c985dd85b0819985a5b1959607a1b6044820152606490fd5b60405162461bcd60e51b81526020600482015260146024820152734e6f2066756e647320746f20776974686472617760601b6044820152606490fd5b34610214575f36600319011261021457602060ff600d5460a01c166040519015158152f35b346102145760403660031901126102145761081c611bc7565b6001600160a01b03165f908152600760205260409020805460243591908210156102145760209161084c91611b9c565b90546040519160031b1c8152f35b346102145760203660031901126102145760043561087f60ff600d5460a01c16611dd5565b801515806108c1575b61089190611d96565b5f526004602052606060405f20600b81015490600d600c8201549101549060405192835260208301526040820152f35b506002548110610888565b3461021457602080600319360112610214576001600160a01b036108ee611bc7565b165f52600760205260405f20906040519081602084549182815201935f5260205f20915f905b82821061093b576109378561092b81890382611bfa565b60405191829182611b18565b0390f35b835486529485019460019384019390910190610914565b61095b36611bb1565b90610964612117565b80151580610db1575b61097690611d96565b8115610d6c57805f5260206004815260405f206008810190815460ff811615610d31576007820191825491878310610cec57600a8201544211610cb357600182019060018060a01b0392838354163314610c6e578960046109d8920154611f98565b956127106109e8600c5489611f98565b04916109f4838961203e565b95883410610c32578b610a069161203e565b80885515610c1c575b5050600354610a1d81611f8a565b6003556040519060a082019180831067ffffffffffffffff84111761060257610aaf926040528a815260048a8d818401903382526040850190815260608501918d835260056080870194428652885f525260405f20955186558a600187019151166001600160601b0360a01b82541617905551600285015551600384015551910155335f526007895260405f20611ff3565b610aba600a54611f8a565b600a55610ac986600b54611fab565b600b5580610bc1575b505f80938193829354165af1610ae661204b565b5015610b8357813411610b30575b549160405194855284015260408301527fb66f09a4b1fc81b532e0d033e0e8cba1a2284efae3d417be0104f7e286adf8d360603393a360018055005b5f808080610b3e863461203e565b335af1610b4961204b565b50610af45760405162461bcd60e51b815260048101849052600d60248201526c1499599d5b990819985a5b1959609a1b6044820152606490fd5b60405162461bcd60e51b815260048101849052601660248201527510dc99585d1bdc881c185e5b595b9d0819985a5b195960521b6044820152606490fd5b5f8080809386600d54165af1610bd561204b565b5015610be15788610ad2565b60405162461bcd60e51b8152600481018790526013602482015272119959481d1c985b9cd9995c8819985a5b1959606a1b6044820152606490fd5b60ff19169055610c2b8861207a565b8980610a0f565b60405162461bcd60e51b8152600481018b90526014602482015273125b9cdd59999a58da595b9d081c185e5b595b9d60621b6044820152606490fd5b60405162461bcd60e51b815260048101899052601e60248201527f43616e6e6f7420707572636861736520796f7572206f776e206f6666657200006044820152606490fd5b60405162461bcd60e51b815260048101879052601160248201527013d999995c881a185cc8195e1c1a5c9959607a1b6044820152606490fd5b60405162461bcd60e51b815260048101879052601a60248201527f4e6f7420656e6f75676820736c6f747320617661696c61626c650000000000006044820152606490fd5b60405162461bcd60e51b81526004810185905260136024820152724f66666572206973206e6f742061637469766560681b6044820152606490fd5b60405162461bcd60e51b815260206004820152601d60248201527f4d757374207075726368617365206174206c65617374203120736c6f740000006044820152606490fd5b50600254811061096d565b34610214575f36600319011261021457610dd461213a565b600d5460ff8160a01c1615610e1d5760ff60a01b1916600d556040515f815233907f79d3004fac47cc8aa2b633c3f57c95266f43e78587c5a20c965fcc1e100d4abe90602090a2005b60405162461bcd60e51b815260206004820152601460248201527311921148185b1c9958591e48191a5cd8589b195960621b6044820152606490fd5b3461021457604036600319011261021457610e72611bc7565b6001600160a01b03165f908152600660205260409020805460243591908210156102145760209161084c91611b9c565b34610214575f36600319011261021457610eba61213a565b600d5460ff8160a01c16610f095760ff60a01b1916600160a01b17600d556040516001815233907f79d3004fac47cc8aa2b633c3f57c95266f43e78587c5a20c965fcc1e100d4abe90602090a2005b60405162461bcd60e51b815260206004820152601360248201527211921148185b1c9958591e48195b98589b1959606a1b6044820152606490fd5b3461021457602036600319011261021457600435610f6061213a565b6103e88111610f6e57600c55005b60405162461bcd60e51b81526020600482015260156024820152744665652063616e6e6f74206578636565642031302560581b6044820152606490fd5b34610214575f366003190112610214575f546040516001600160a01b039091168152602090f35b3461021457602036600319011261021457600480355f90815260209190915260409020805460018201546001600160a01b03169161101260028201611cb6565b61101e60038301611cb6565b91600481015492600582015460068301546007840154600885015460ff1690600986015492600a87015494600b88015496600c89015498600d0154996040519d8e9d8e6101c092839282526020820152604001528d0161107d91611d58565b8c810360608e015261108e91611d58565b9960808c015260a08b015260c08a015260e089015215156101008801526101208701526101408601526101608501526101808401526101a08301520390f35b34610214576020366003190112610214576004355f52600560205260a060405f20805490600180841b0360018201541690600281015460046003830154920154926040519485526020850152604084015260608301526080820152f35b3461021457602036600319011261021457611143611bc7565b61114b61213a565b6001600160a01b03168015611171576001600160601b0360a01b600d541617600d555f80f35b60405162461bcd60e51b815260206004820152601860248201527f496e76616c6964207472656173757279206164647265737300000000000000006044820152606490fd5b34610214575f366003190112610214576111ce61213a565b5f80546001600160a01b0319811682556001600160a01b03167f8be0079c531659141344cd1fd0a4f28419497f9722a3daafe3b4186f6b6457e08280a3005b34610214575f366003190112610214576020600c54604051908152f35b346102145760a03660031901126102145760043567ffffffffffffffff81116102145761125b903690600401611c38565b60243567ffffffffffffffff81116102145761127b903690600401611c38565b611283612117565b61128f82511515611e16565b61129b81511515611e5a565b6112a86044351515611ea6565b60643515906112b78215611ef2565b6112c46084351515611f3e565b600254916112d183611f8a565b60025560643562015180818102929183041417156106df576112f39042611fab565b6112fb612165565b611303612165565b9061130c612165565b926040519461131a86611bdd565b8686523360208701528760408701526060860152604435608086015260643560a086015260843560c086015260843560e08601526001610100860152426101208601526101408501526101608401526101808301526101a0820152815f52600460205260405f2090805182556001820160018060a01b036020830151166001600160601b0360a01b825416179055604081015180519067ffffffffffffffff82116106025781906113ce6002860154611c7e565b601f81116115c4575b50602090601f8311600114611556575f9261154b575b50508160011b915f199060031b1c19161760028301555b606081015180519067ffffffffffffffff8211610602576114286003850154611c7e565b601f8111611507575b50602090601f83116001146114ae579180600d94926101a0945f926105415750508160011b915f199060031b1c19161760038501556080810151600485015560a0810151600585015560c0810151600685015560e0810151600785015561049f6101008201511515600886019060ff801983541691151516179055565b90600385015f5260205f20915f5b601f19851681106114ef575092600d94926001926101a09583601f1981161061058e57505050811b016003850155610457565b919260206001819286850151815501940192016114bc565b600385015f5260205f20601f840160051c810160208510611544575b601f830160051c82018110611539575050611431565b5f8155600101611523565b5080611523565b0151905086806113ed565b9250600285015f5260205f20905f935b601f19841685106115a9576001945083601f19811610611591575b505050811b016002830155611404565b01515f1960f88460031b161c19169055868080611581565b81810151835560209485019460019093019290910190611566565b909150600285015f5260205f20601f840160051c81016020851061160d575b90849392915b601f830160051c820181106115ff5750506113d7565b5f81558594506001016115e9565b50806115e3565b3461021457602080600319360112610214576001600160a01b03611636611bc7565b165f52600660205260405f20906040519081602084549182815201935f5260205f20915f905b828210611673576109378561092b81890382611bfa565b83548652948501946001938401939091019061165c565b34610214575f36600319011261021457600d546040516001600160a01b039091168152602090f35b34610214575f366003190112610214576020600b54604051908152f35b34610214575f366003190112610214576020600254604051908152f35b34610214576116fa36611bb1565b9061170c60ff600d5460a01c16611dd5565b801515806118f1575b156118b757811515806118ac575b15611872575f526020906004825260405f20905f5260405f209060ff60088201541680611864575b1561182757600b80849201549201548215611817575b8015611809575b606460018060a01b037f9e7b61f58c47dc699ac88507c4f5bb9f121c03808c5676a8078fe583e46497015416935f60405195869485936385362ee760e01b8552600485015260248401528160448401525af19081156117fe575f916117d1575b50604051908152f35b90508181813d83116117f7575b6117e88183611bfa565b810103126102145751826117c8565b503d6117de565b6040513d5f823e3d90fd5b50611812612165565b611768565b9150611821612165565b91611761565b60405162461bcd60e51b81526004810184905260156024820152744f6666657273206d7573742062652061637469766560581b6044820152606490fd5b5060ff60088301541661174b565b60405162461bcd60e51b815260206004820152601260248201527124b73b30b634b21037b33332b91024a2101960711b6044820152606490fd5b506002548210611723565b60405162461bcd60e51b8152602060048201526012602482015271496e76616c6964206f66666572204944203160701b6044820152606490fd5b506002548110611715565b34610214575f366003190112610214576020600a54604051908152f35b34610214576020366003190112610214576004356008548110156102145761084c602091611b53565b34610214575f36600319011261021457604051806008549182815260208091019260085f527ff3f7a9fe364faab93b216da50a3214154f22a0a2b415b23a84c8169e8b636ee3915f905b8282106119a3576109378561092b81890382611bfa565b83548652948501946001938401939091019061198c565b34610214575f366003190112610214576020600354604051908152f35b34610214575f366003190112610214576020600954604051908152f35b346102145760203660031901126102145760043580151580611b0d575b611a1a90611d96565b5f8181526004602052604090206001810180546001600160a01b039290831633148015611b01575b15611acb57600801805460ff811615611a8d5760ff19169055611a648361207a565b5416907f7396d7b9b9d06aed97fc917b68d0d07e75b3a6b21f7db9057b9c363a899266715f80a3005b60405162461bcd60e51b81526020600482015260166024820152754f6666657220616c726561647920696e61637469766560501b6044820152606490fd5b60405162461bcd60e51b815260206004820152600e60248201526d139bdd08185d5d1a1bdc9a5e995960921b6044820152606490fd5b50825f54163314611a42565b506002548110611a11565b60209060206040818301928281528551809452019301915f5b828110611b3f575050505090565b835185529381019392810192600101611b31565b600854811015611b885760085f527ff3f7a9fe364faab93b216da50a3214154f22a0a2b415b23a84c8169e8b636ee301905f90565b634e487b7160e01b5f52603260045260245ffd5b8054821015611b88575f5260205f2001905f90565b6040906003190112610214576004359060243590565b600435906001600160a01b038216820361021457565b6101c0810190811067ffffffffffffffff82111761060257604052565b90601f8019910116810190811067ffffffffffffffff82111761060257604052565b67ffffffffffffffff811161060257601f01601f191660200190565b81601f8201121561021457803590611c4f82611c1c565b92611c5d6040519485611bfa565b8284526020838301011161021457815f926020809301838601378301015290565b90600182811c92168015611cac575b6020831014611c9857565b634e487b7160e01b5f52602260045260245ffd5b91607f1691611c8d565b9060405191825f8254611cc881611c7e565b908184526020946001916001811690815f14611d365750600114611cf8575b505050611cf692500383611bfa565b565b5f90815285812095935091905b818310611d1e575050611cf693508201015f8080611ce7565b85548884018501529485019487945091830191611d05565b92505050611cf694925060ff191682840152151560051b8201015f8080611ce7565b91908251928382525f5b848110611d82575050825f602080949584010152601f8019910116010190565b602081830181015184830182015201611d62565b15611d9d57565b60405162461bcd60e51b815260206004820152601060248201526f125b9d985b1a59081bd999995c88125160821b6044820152606490fd5b15611ddc57565b60405162461bcd60e51b8152602060048201526012602482015271119211481a5cc81b9bdd08195b98589b195960721b6044820152606490fd5b15611e1d57565b60405162461bcd60e51b81526020600482015260156024820152745469746c652063616e6e6f7420626520656d70747960581b6044820152606490fd5b15611e6157565b60405162461bcd60e51b815260206004820152601b60248201527f4465736372697074696f6e2063616e6e6f7420626520656d70747900000000006044820152606490fd5b15611ead57565b60405162461bcd60e51b815260206004820152601c60248201527f5072696365206d7573742062652067726561746572207468616e2030000000006044820152606490fd5b15611ef957565b60405162461bcd60e51b815260206004820152601f60248201527f4475726174696f6e206d7573742062652067726561746572207468616e2030006044820152606490fd5b15611f4557565b60405162461bcd60e51b815260206004820152601c60248201527f536c6f7473206d7573742062652067726561746572207468616e2030000000006044820152606490fd5b5f1981146106df5760010190565b818102929181159184041417156106df57565b919082018092116106df57565b60085490600160401b82101561060257611fdb826001611cf69401600855611b53565b90919082549060031b91821b915f19901b1916179055565b90815491600160401b8310156106025782611fdb916001611cf695018155611b9c565b909261202f606093969594608084526080840190611d58565b95602083015260408201520152565b919082039182116106df57565b3d15612075573d9061205c82611c1c565b9161206a6040519384611bfa565b82523d5f602084013e565b606090565b5f5b6008908154918282101561211157839261209583611b53565b959054600396871b1c146120b057505060019192500161207c565b9092505f19918282019182116106df57611fdb6120cf6120db93611b53565b905490871b1c91611b53565b815480156120fd578101926120ef84611b53565b81939154921b1b1916905555565b634e487b7160e01b5f52603160045260245ffd5b50505050565b600260015414612128576002600155565b604051633ee5aeb560e01b8152600490fd5b5f546001600160a01b0316330361214d57565b60405163118cdaa760e01b8152336004820152602490fd5b7f9e7b61f58c47dc699ac88507c4f5bb9f121c03808c5676a8078fe583e464970154604051639cd07acb60e01b81525f600480830182905260248301529091602091839160449183916001600160a01b03165af19081156117fe575f916121ca575090565b90506020813d6020116121f1575b816121e560209383611bfa565b81010312610214575190565b3d91506121d856fea264697066735822122067a68e28d12d333170ed818ced787ec11af7c57e1d982ca8806ca7ebdb05f3fa64736f6c63430008180033",
  "linkReferences": {},
  "deployedLinkReferences": {}
}