{
  "_format": "hh-sol-artifact-1",
  "contractName": "TimeMarketplaceFHE",
  "sourceName": "contracts/TimeMarketplaceFHE.sol",
  "abi": [
    {
      "inputs": [
        {
          "internalType": "address",
          "name": "_treasury",
          "type": "address"
        }
      ],
      "stateMutability": "nonpayable",
      "type": "constructor"
    },
    {
      "inputs": [],
      "name": "InvalidKMSSignatures",
      "type": "error"
    },
    {
      "inputs": [
        {
          "internalType": "address",
          "name": "owner",
          "type": "address"
        }
      ],
      "name": "OwnableInvalidOwner",
      "type": "error"
    },
    {
      "inputs": [
        {
          "internalType": "address",
          "name": "account",
          "type": "address"
        }
      ],
      "name": "OwnableUnauthorizedAccount",
      "type": "error"
    },
    {
      "inputs": [],
      "name": "ReentrancyGuardReentrantCall",
      "type": "error"
    },
    {
      "inputs": [],
      "name": "ZamaProtocolUnsupported",
      "type": "error"
    },
    {
      "anonymous": false,
      "inputs": [
        {
          "indexed": true,
          "internalType": "uint256",
          "name": "offerId",
          "type": "uint256"
        },
        {
          "indexed": true,
          "internalType": "address",
          "name": "creator",
          "type": "address"
        },
        {
          "indexed": false,
          "internalType": "string",
          "name": "title",
          "type": "string"
        },
        {
          "indexed": false,
          "internalType": "uint256",
          "name": "publicPrice",
          "type": "uint256"
        },
        {
          "indexed": false,
          "internalType": "uint256",
          "name": "duration",
          "type": "uint256"
        },
        {
          "indexed": false,
          "internalType": "uint256",
          "name": "slots",
          "type": "uint256"
        }
      ],
      "name": "OfferCreated",
      "type": "event"
    },
    {
      "anonymous": false,
      "inputs": [
        {
          "indexed": true,
          "internalType": "uint256",
          "name": "offerId",
          "type": "uint256"
        },
        {
          "indexed": true,
          "internalType": "address",
          "name": "creator",
          "type": "address"
        }
      ],
      "name": "OfferDeactivated",
      "type": "event"
    },
    {
      "anonymous": false,
      "inputs": [
        {
          "indexed": true,
          "internalType": "uint256",
          "name": "offerId",
          "type": "uint256"
        },
        {
          "indexed": true,
          "internalType": "address",
          "name": "buyer",
          "type": "address"
        },
        {
          "indexed": false,
          "internalType": "uint256",
          "name": "slots",
          "type": "uint256"
        },
        {
          "indexed": false,
          "internalType": "uint256",
          "name": "totalPrice",
          "type": "uint256"
        },
        {
          "indexed": false,
          "internalType": "uint256",
          "name": "slotsLeft",
          "type": "uint256"
        }
      ],
      "name": "OfferPurchased",
      "type": "event"
    },
    {
      "anonymous": false,
      "inputs": [
        {
          "indexed": true,
          "internalType": "address",
          "name": "previousOwner",
          "type": "address"
        },
        {
          "indexed": true,
          "internalType": "address",
          "name": "newOwner",
          "type": "address"
        }
      ],
      "name": "OwnershipTransferred",
      "type": "event"
    },
    {
      "anonymous": false,
      "inputs": [
        {
          "indexed": false,
          "internalType": "bytes32[]",
          "name": "handlesList",
          "type": "bytes32[]"
        },
        {
          "indexed": false,
          "internalType": "bytes",
          "name": "abiEncodedCleartexts",
          "type": "bytes"
        }
      ],
      "name": "PublicDecryptionVerified",
      "type": "event"
    },
    {
      "anonymous": false,
      "inputs": [
        {
          "indexed": true,
          "internalType": "uint256",
          "name": "offerId",
          "type": "uint256"
        },
        {
          "indexed": false,
          "internalType": "bytes32",
          "name": "priceHandle",
          "type": "bytes32"
        },
        {
          "indexed": false,
          "internalType": "bytes32",
          "name": "slotsHandle",
          "type": "bytes32"
        }
      ],
      "name": "TallyRevealRequested",
      "type": "event"
    },
    {
      "inputs": [
        {
          "internalType": "uint256",
          "name": "",
          "type": "uint256"
        }
      ],
      "name": "activeOfferIds",
      "outputs": [
        {
          "internalType": "uint256",
          "name": "",
          "type": "uint256"
        }
      ],
      "stateMutability": "view",
      "type": "function"
    },
    {
      "inputs": [
        {
          "internalType": "uint256",
          "name": "_offerId1",
          "type": "uint256"
        },
        {
          "internalType": "uint256",
          "name": "_offerId2",
          "type": "uint256"
        }
      ],
      "name": "comparePrices",
      "outputs": [
        {
          "internalType": "ebool",
          "name": "",
          "type": "bytes32"
        }
      ],
      "stateMutability": "nonpayable",
      "type": "function"
    },
    {
      "inputs": [],
      "name": "confidentialProtocolId",
      "outputs": [
        {
          "internalType": "uint256",
          "name": "",
          "type": "uint256"
        }
      ],
      "stateMutability": "view",
      "type": "function"
    },
    {
      "inputs": [
        {
          "internalType": "string",
          "name": "_title",
          "type": "string"
        },
        {
          "internalType": "string",
          "name": "_description",
          "type": "string"
        },
        {
          "internalType": "uint256",
          "name": "_price",
          "type": "uint256"
        },
        {
          "internalType": "uint256",
          "name": "_duration",
          "type": "uint256"
        },
        {
          "internalType": "uint256",
          "name": "_slots",
          "type": "uint256"
        }
      ],
      "name": "createOffer",
      "outputs": [],
      "stateMutability": "nonpayable",
      "type": "function"
    },
    {
      "inputs": [
        {
          "internalType": "string",
          "name": "_title",
          "type": "string"
        },
        {
          "internalType": "string",
          "name": "_description",
          "type": "string"
        },
        {
          "internalType": "uint256",
          "name": "_publicPrice",
          "type": "uint256"
        },
        {
          "internalType": "uint256",
          "name": "_duration",
          "type": "uint256"
        },
        {
          "internalType": "uint256",
          "name": "_slots",
          "type": "uint256"
        },
        {
          "internalType": "externalEuint64",
          "name": "_encryptedPrice",
          "type": "bytes32"
        },
        {
          "internalType": "externalEuint32",
          "name": "_encryptedDuration",
          "type": "bytes32"
        },
        {
          "internalType": "externalEuint32",
          "name": "_encryptedSlots",
          "type": "bytes32"
        },
        {
          "internalType": "bytes",
          "name": "inputProof",
          "type": "bytes"
        }
      ],
      "name": "createOfferWithFHE",
      "outputs": [],
      "stateMutability": "nonpayable",
      "type": "function"
    },
    {
      "inputs": [
        {
          "internalType": "uint256",
          "name": "_offerId",
          "type": "uint256"
        }
      ],
      "name": "deactivateOffer",
      "outputs": [],
      "stateMutability": "nonpayable",
      "type": "function"
    },
    {
      "inputs": [],
      "name": "emergencyWithdraw",
      "outputs": [],
      "stateMutability": "nonpayable",
      "type": "function"
    },
    {
      "inputs": [],
      "name": "getActiveOfferIds",
      "outputs": [
        {
          "internalType": "uint256[]",
          "name": "",
          "type": "uint256[]"
        }
      ],
      "stateMutability": "view",
      "type": "function"
    },
    {
      "inputs": [],
      "name": "getContractStats",
      "outputs": [
        {
          "internalType": "uint256",
          "name": "",
          "type": "uint256"
        },
        {
          "internalType": "uint256",
          "name": "",
          "type": "uint256"
        },
        {
          "internalType": "uint256",
          "name": "",
          "type": "uint256"
        },
        {
          "internalType": "uint256",
          "name": "",
          "type": "uint256"
        }
      ],
      "stateMutability": "view",
      "type": "function"
    },
    {
      "inputs": [
        {
          "internalType": "uint256",
          "name": "_offerId",
          "type": "uint256"
        }
      ],
      "name": "getEncryptedOfferData",
      "outputs": [
        {
          "internalType": "euint64",
          "name": "",
          "type": "bytes32"
        },
        {
          "internalType": "euint32",
          "name": "",
          "type": "bytes32"
        },
        {
          "internalType": "euint32",
          "name": "",
          "type": "bytes32"
        }
      ],
      "stateMutability": "view",
      "type": "function"
    },
    {
      "inputs": [],
      "name": "getPlatformFee",
      "outputs": [
        {
          "internalType": "uint256",
          "name": "",
          "type": "uint256"
        }
      ],
      "stateMutability": "view",
      "type": "function"
    },
    {
      "inputs": [],
      "name": "getTreasury",
      "outputs": [
        {
          "internalType": "address",
          "name": "",
          "type": "address"
        }
      ],
      "stateMutability": "view",
      "type": "function"
    },
    {
      "inputs": [
        {
          "internalType": "address",
          "name": "_user",
          "type": "address"
        }
      ],
      "name": "getUserOffers",
      "outputs": [
        {
          "internalType": "uint256[]",
          "name": "",
          "type": "uint256[]"
        }
      ],
      "stateMutability": "view",
      "type": "function"
    },
    {
      "inputs": [
        {
          "internalType": "address",
          "name": "_user",
          "type": "address"
        }
      ],
      "name": "getUserPurchases",
      "outputs": [
        {
          "internalType": "uint256[]",
          "name": "",
          "type": "uint256[]"
        }
      ],
      "stateMutability": "view",
      "type": "function"
    },
    {
      "inputs": [],
      "name": "nextOfferId",
      "outputs": [
        {
          "internalType": "uint256",
          "name": "",
          "type": "uint256"
        }
      ],
      "stateMutability": "view",
      "type": "function"
    },
    {
      "inputs": [],
      "name": "nextPurchaseId",
      "outputs": [
        {
          "internalType": "uint256",
          "name": "",
          "type": "uint256"
        }
      ],
      "stateMutability": "view",
      "type": "function"
    },
    {
      "inputs": [
        {
          "internalType": "uint256",
          "name": "",
          "type": "uint256"
        }
      ],
      "name": "offers",
      "outputs": [
        {
          "internalType": "uint256",
          "name": "id",
          "type": "uint256"
        },
        {
          "internalType": "address",
          "name": "creator",
          "type": "address"
        },
        {
          "internalType": "string",
          "name": "title",
          "type": "string"
        },
        {
          "internalType": "string",
          "name": "description",
          "type": "string"
        },
        {
          "internalType": "uint256",
          "name": "publicPrice",
          "type": "uint256"
        },
        {
          "internalType": "uint256",
          "name": "duration",
          "type": "uint256"
        },
        {
          "internalType": "uint256",
          "name": "slots",
          "type": "uint256"
        },
        {
          "internalType": "uint256",
          "name": "availableSlots",
          "type": "uint256"
        },
        {
          "internalType": "bool",
          "name": "isActive",
          "type": "bool"
        },
        {
          "internalType": "uint256",
          "name": "createdAt",
          "type": "uint256"
        },
        {
          "internalType": "uint256",
          "name": "expiresAt",
          "type": "uint256"
        },
        {
          "internalType": "euint64",
          "name": "encryptedPrice",
          "type": "bytes32"
        },
        {
          "internalType": "euint32",
          "name": "encryptedDuration",
          "type": "bytes32"
        },
        {
          "internalType": "euint32",
          "name": "encryptedSlots",
          "type": "bytes32"
        }
      ],
      "stateMutability": "view",
      "type": "function"
    },
    {
      "inputs": [],
      "name": "owner",
      "outputs": [
        {
          "internalType": "address",
          "name": "",
          "type": "address"
        }
      ],
      "stateMutability": "view",
      "type": "function"
    },
    {
      "inputs": [],
      "name": "platformFee",
      "outputs": [
        {
          "internalType": "uint256",
          "name": "",
          "type": "uint256"
        }
      ],
      "stateMutability": "view",
      "type": "function"
    },
    {
      "inputs": [
        {
          "internalType": "uint256",
          "name": "_offerId",
          "type": "uint256"
        },
        {
          "internalType": "uint256",
          "name": "_slots",
          "type": "uint256"
        }
      ],
      "name": "purchaseOffer",
      "outputs": [],
      "stateMutability": "payable",
      "type": "function"
    },
    {
      "inputs": [
        {
          "internalType": "uint256",
          "name": "",
          "type": "uint256"
        }
      ],
      "name": "purchases",
      "outputs": [
        {
          "internalType": "uint256",
          "name": "offerId",
          "type": "uint256"
        },
        {
          "internalType": "address",
          "name": "buyer",
          "type": "address"
        },
        {
          "internalType": "uint256",
          "name": "slots",
          "type": "uint256"
        },
        {
          "internalType": "uint256",
          "name": "totalPrice",
          "type": "uint256"
        },
        {
          "internalType": "uint256",
          "name": "timestamp",
          "type": "uint256"
        }
      ],
      "stateMutability": "view",
      "type": "function"
    },
    {
      "inputs": [],
      "name": "renounceOwnership",
      "outputs": [],
      "stateMutability": "nonpayable",
      "type": "function"
    },
    {
      "inputs": [
        {
          "internalType": "uint256",
          "name": "_offerId",
          "type": "uint256"
        }
      ],
      "name": "requestOfferReveal",
      "outputs": [],
      "stateMutability": "nonpayable",
      "type": "function"
    },
    {
      "inputs": [
        {
          "internalType": "uint256",
          "name": "_offerId",
          "type": "uint256"
        },
        {
          "internalType": "bytes",
          "name": "cleartexts",
          "type": "bytes"
        },
        {
          "internalType": "bytes",
          "name": "decryptionProof",
          "type": "bytes"
        }
      ],
      "name": "resolveOfferCallback",
      "outputs": [],
      "stateMutability": "nonpayable",
      "type": "function"
    },
    {
      "inputs": [],
      "name": "totalOffersCreated",
      "outputs": [
        {
          "internalType": "uint256",
          "name": "",
          "type": "uint256"
        }
      ],
      "stateMutability": "view",
      "type": "function"
    },
    {
      "inputs": [],
      "name": "totalPurchases",
      "outputs": [
        {
          "internalType": "uint256",
          "name": "",
          "type": "uint256"
        }
      ],
      "stateMutability": "view",
      "type": "function"
    },
    {
      "inputs": [],
      "name": "totalVolume",
      "outputs": [
        {
          "internalType": "uint256",
          "name": "",
          "type": "uint256"
        }
      ],
      "stateMutability": "view",
      "type": "function"
    },
    {
      "inputs": [
        {
          "internalType": "address",
          "name": "newOwner",
          "type": "address"
        }
      ],
      "name": "transferOwnership",
      "outputs": [],
      "stateMutability": "nonpayable",
      "type": "function"
    },
    {
      "inputs": [],
      "name": "treasury",
      "outputs": [
        {
          "internalType": "address",
          "name": "",
          "type": "address"
        }
      ],
      "stateMutability": "view",
      "type": "function"
    },
    {
      "inputs": [
        {
          "internalType": "uint256",
          "name": "_newFee",
          "type": "uint256"
        }
      ],
      "name": "updatePlatformFee",
      "outputs": [],
      "stateMutability": "nonpayable",
      "type": "function"
    },
    {
      "inputs": [
        {
          "internalType": "address",
          "name": "_newTreasury",
          "type": "address"
        }
      ],
      "name": "updateTreasury",
      "outputs": [],
      "stateMutability": "nonpayable",
      "type": "function"
    },
    {
      "inputs": [
        {
          "internalType": "address",
          "name": "",
          "type": "address"
        },
        {
          "internalType": "uint256",
          "name": "",
          "type": "uint256"
        }
      ],
      "name": "userOffers",
      "outputs": [
        {
          "internalType": "uint256",
          "name": "",
          "type": "uint256"
        }
      ],
      "stateMutability": "view",
      "type": "function"
    },
    {
      "inputs": [
        {
          "internalType": "address",
          "name": "",
          "type": "address"
        },
        {
          "internalType": "uint256",
          "name": "",
          "type": "uint256"
        }
      ],
      "name": "userPurchases",
      "outputs": [
        {
          "internalType": "uint256",
          "name": "",
          "type": "uint256"
        }
      ],
      "stateMutability": "view",
      "type": "function"
    }
  ],
  "bytecode": "0x608034620002dc57601f62002c2038819003918201601f1916830192916001600160401b03841183851017620002e05780839260409586528339602092839181010312620002dc57516001600160a01b03808216929091839003620002dc573315620002c5575f549160018060a01b03199233848216175f55813391167f8be0079c531659141344cd1fd0a4f28419497f9722a3daafe3b4186f6b6457e05f80a360018055620000ae62000314565b5046600103620001d557620000c262000314565b5084620000ce620002f4565b5f81525f848201525f828201525b828151167f9e7b61f58c47dc699ac88507c4f5bb9f121c03808c5676a8078fe583e464970090868254161790558284820151167f9e7b61f58c47dc699ac88507c4f5bb9f121c03808c5676a8078fe583e464970190868254161790550151167f9e7b61f58c47dc699ac88507c4f5bb9f121c03808c5676a8078fe583e46497029083825416179055600160025560016003556101f4600c558215620001925750600d541617600d55516128ef9081620003318239f35b60649084519062461bcd60e51b82526004820152601860248201527f496e76616c6964207472656173757279206164647265737300000000000000006044820152fd5b4662aa36a7036200024557620001ea62000314565b5084620001f6620002f4565b73f0ffdc93b7e186bc2f8cb3daa75d86d1930a433d81527392c920834ec8941d2c77d188936e1f7a6f49c1278482015273be0e383937d564d7ff0bc3b46c51f0bf8d5c311a82820152620000dc565b46617a6903620002b4576200025962000314565b508462000265620002f4565b7350157cffd6bbfa2dece204a89ec419c23ef5755d815273e3a9105a3a932253a70f126eb1e3b589c643dd248482015273901f8942346f7ab3a01f6d7613119bca447bb03082820152620000dc565b84516373cac13b60e01b8152600490fd5b8351631e4fbdf760e01b81525f6004820152602490fd5b5f80fd5b634e487b7160e01b5f52604160045260245ffd5b60405190606082016001600160401b03811183821017620002e057604052565b6200031e620002f4565b905f82525f60208301525f604083015256fe60806040526004361015610011575f80fd5b5f3560e01c80630b5e1f3f14611e2457806316df4aec14611e0757806323b4a7a314611dea57806326232a2e146115675780632cf2745514611d725780633b19e84a14611ae957806354f2bbd614611d495780635962a94114611d2c5780635ce30fa414611b4b5780635f5d065514611b2e5780635f81a57c14611b1157806361d027b314611ae9578063661d2c2c14611a7357806367ee89b1146115845780636ea8bc1014611567578063715018a61461151057806372c40872146112d75780637f51bb1f1461124b5780638392fe31146111ee57806389074a7714610b675780638927b03014610b455780638a72ea6a14610a4a5780638da5cb5b14610a23578063aa0b5988146109bc578063bd5fec6514610973578063c69d0418146104f6578063c6e5d8f614610470578063c8798c851461040f578063cf2c0334146103b8578063d34a3a0c146102f8578063db2e21bc14610243578063dfe6b5d61461020d5763f2fde38b14610184575f80fd5b346102095760203660031901126102095761019d611fb1565b6101a561254b565b6001600160a01b039081169081156101f1575f54826001600160601b0360a01b8216175f55167f8be0079c531659141344cd1fd0a4f28419497f9722a3daafe3b4186f6b6457e05f80a3005b604051631e4fbdf760e01b81525f6004820152602490fd5b5f80fd5b34610209575f366003190112610209576080600954600a54600b5460085491604051938452602084015260408301526060820152f35b34610209575f3660031901126102095761025b61254b565b4780156102bc575f8080809360018060a01b038254165af161027b61245c565b501561028357005b60405162461bcd60e51b815260206004820152601160248201527015da5d1a191c985dd85b0819985a5b1959607a1b6044820152606490fd5b60405162461bcd60e51b81526020600482015260146024820152734e6f2066756e647320746f20776974686472617760601b6044820152606490fd5b3461020957602036600319011261020957600435801515806103ad575b61031e9061219e565b805f5260046020527f6d3eb8814fef1c051029e2e242037563df7ad27e93ffc3baa3d9a044bdd36cd36040805f2061036d60018060a01b038060018401541633149081156103a0575b506121dd565b600d600b820191825461037f816127fb565b8355019081548092610390826127fb565b55549082519182526020820152a2005b90505f5416331486610367565b506002548110610315565b34610209576040366003190112610209576103d1611fb1565b6001600160a01b03165f908152600760205260409020805460243591908210156102095760209161040191611f86565b90546040519160031b1c8152f35b346102095760203660031901126102095760043580151580610465575b6104359061219e565b5f526004602052606060405f20600b81015490600d600c8201549101549060405192835260208301526040820152f35b50600254811061042c565b3461020957602080600319360112610209576001600160a01b03610492611fb1565b165f52600760205260405f20906040519081602084549182815201935f5260205f20915f905b8282106104df576104db856104cf81890382611ff6565b60405191829182611f16565b0390f35b8354865294850194600193840193909101906104b8565b6104ff36611f9b565b90610508612528565b80151580610968575b61051a9061219e565b811561092357805f5260206004815260405f206008810190815460ff8116156108e85760078201918254918783106108a357600a820154421161086a57600182019060018060a01b03928383541633146108255789600461057c92015461239c565b9561271061058c600c548961239c565b0491610598838961244f565b958834106107e9578b6105aa9161244f565b808855156107d3575b50506003546105c18161238e565b6003556040519060a08201918083106001600160401b038411176107bf57610652926040528a815260048a8d818401903382526040850190815260608501918d835260056080870194428652885f525260405f20955186558a600187019151166001600160601b0360a01b82541617905551600285015551600384015551910155335f526007895260405f206123f7565b61065d600a5461238e565b600a5561066c86600b546123af565b600b5580610764575b505f80938193829354165af161068961245c565b5015610726578134116106d3575b549160405194855284015260408301527fb66f09a4b1fc81b532e0d033e0e8cba1a2284efae3d417be0104f7e286adf8d360603393a360018055005b5f8080806106e1863461244f565b335af16106ec61245c565b506106975760405162461bcd60e51b815260048101849052600d60248201526c1499599d5b990819985a5b1959609a1b6044820152606490fd5b60405162461bcd60e51b815260048101849052601660248201527510dc99585d1bdc881c185e5b595b9d0819985a5b195960521b6044820152606490fd5b5f8080809386600d54165af161077861245c565b50156107845788610675565b60405162461bcd60e51b8152600481018790526013602482015272119959481d1c985b9cd9995c8819985a5b1959606a1b6044820152606490fd5b634e487b7160e01b5f52604160045260245ffd5b60ff191690556107e28861248b565b89806105b3565b60405162461bcd60e51b8152600481018b90526014602482015273125b9cdd59999a58da595b9d081c185e5b595b9d60621b6044820152606490fd5b60405162461bcd60e51b815260048101899052601e60248201527f43616e6e6f7420707572636861736520796f7572206f776e206f6666657200006044820152606490fd5b60405162461bcd60e51b815260048101879052601160248201527013d999995c881a185cc8195e1c1a5c9959607a1b6044820152606490fd5b60405162461bcd60e51b815260048101879052601a60248201527f4e6f7420656e6f75676820736c6f747320617661696c61626c650000000000006044820152606490fd5b60405162461bcd60e51b81526004810185905260136024820152724f66666572206973206e6f742061637469766560681b6044820152606490fd5b60405162461bcd60e51b815260206004820152601d60248201527f4d757374207075726368617365206174206c65617374203120736c6f740000006044820152606490fd5b506002548110610511565b346102095760403660031901126102095761098c611fb1565b6001600160a01b03165f908152600660205260409020805460243591908210156102095760209161040191611f86565b34610209576020366003190112610209576004356109d861254b565b6103e881116109e657600c55005b60405162461bcd60e51b81526020600482015260156024820152744665652063616e6e6f74206578636565642031302560581b6044820152606490fd5b34610209575f366003190112610209575f546040516001600160a01b039091168152602090f35b3461020957602036600319011261020957600480355f90815260209190915260409020805460018201546001600160a01b031691610a8a600282016120be565b610a96600383016120be565b91600481015492600582015460068301546007840154600885015460ff1690600986015492600a87015494600b88015496600c89015498600d0154996040519d8e9d8e6101c092839282526020820152604001528d01610af591612160565b8c810360608e0152610b0691612160565b9960808c015260a08b015260c08a015260e089015215156101008801526101208701526101408601526101608501526101808401526101a08301520390f35b34610209575f366003190112610209576020610b5f6125a9565b604051908152f35b3461020957610120366003190112610209576004356001600160401b03811161020957610b98903690600401612068565b6024356001600160401b03811161020957610bb7903690600401612068565b61010435906001600160401b0382116102095736602383011215610209576001600160401b0382600401351161020957366024836004013584010111610209575f91610c01612528565b610c0d8451151561221a565b610c198251151561225e565b610c2660443515156122aa565b610c3360643515156122f6565b610c406084351515612342565b6020610ca5610c5736846004013560248601612032565b5f8051602061287a8339815191525460405163045fc19560e11b815260a4356004820152336024820152608060448201529687936001600160a01b0390921692849283916084830190612160565b6005606483015203925af19283156111af575f936111ba575b505f8051602061289a833981519152546001600160a01b0316803b1561020957604051630f8e573b60e21b815260048101859052336024820152905f908290604490829084905af180156111af576111a0575b50610d4e610d46610d35610d2d36856004013560248701612032565b60c435612713565b923690602481600401359101612032565b60e435612713565b90610d5930856126a9565b610d6330826126a9565b610d6d30836126a9565b610d7733856126a9565b610d8133826126a9565b610d8b33836126a9565b60025493610d988561238e565b6002556201518080606435029060643582041460643515171561118c57610dbf90426123af565b60405194610dcc86611fc7565b8686523360208701528760408701526060860152604435608086015260643560a086015260843560c086015260843560e08601526001610100860152426101208601526101408501526101608401526101808301526101a0820152815f52600460205260405f2090805182556001820160018060a01b036020830151166001600160601b0360a01b82541617905560408101518051906001600160401b0382116107bf578190610e7f6002860154612086565b601f811161113c575b50602090601f83116001146110ce575f926110c3575b50508160011b915f199060031b1c19161760028301555b60608101518051906001600160401b0382116107bf57610ed86003850154612086565b601f811161107f575b50602090601f831160011461100d579180600d94926101a0945f92611002575b50508160011b915f199060031b1c19161760038501555b6080810151600485015560a0810151600585015560c0810151600685015560e08101516007850155610f606101008201511515600886019060ff801983541691151516179055565b6101208101516009850155610140810151600a850155610160810151600b850155610180810151600c8501550151910155335f526006602052610fa68160405f206123f7565b610faf816123bc565b610fba60095461238e565b6009557f6048132349b4755c4106fba6b9fb9a3cc8d0361fa219cb21bebc1b2c60a8d9bb60405180610ff933956084359060643590604435908561241a565b0390a360018055005b015190508880610f01565b90600385015f5260205f20915f5b601f1985168110611067575092600d94926001926101a09583601f1981161061104f575b505050811b016003850155610f18565b01515f1960f88460031b161c1916905588808061103f565b9192602060018192868501518155019401920161101b565b600385015f5260205f20601f840160051c8101602085106110bc575b601f830160051c820181106110b1575050610ee1565b5f815560010161109b565b508061109b565b015190508680610e9e565b9250600285015f5260205f20905f935b601f1984168510611121576001945083601f19811610611109575b505050811b016002830155610eb5565b01515f1960f88460031b161c191690558680806110f9565b818101518355602094850194600190930192909101906110de565b909150600285015f5260205f20601f840160051c810160208510611185575b90849392915b601f830160051c82018110611177575050610e88565b5f8155859450600101611161565b508061115b565b634e487b7160e01b5f52601160045260245ffd5b6111a990611fe3565b84610d11565b6040513d5f823e3d90fd5b9092506020813d6020116111e6575b816111d660209383611ff6565b8101031261020957519184610cbe565b3d91506111c9565b34610209576020366003190112610209576004355f52600560205260a060405f20805490600180841b0360018201541690600281015460046003830154920154926040519485526020850152604084015260608301526080820152f35b3461020957602036600319011261020957611264611fb1565b61126c61254b565b6001600160a01b03168015611292576001600160601b0360a01b600d541617600d555f80f35b60405162461bcd60e51b815260206004820152601860248201527f496e76616c6964207472656173757279206164647265737300000000000000006044820152606490fd5b346102095760031960603682011261020957600435906001600160401b03906024358281116102095761130e903690600401612068565b9060443583811161020957611327903690600401612068565b9380151580611505575b61133a9061219e565b5f526020906004825260405f20946040519160608301838110878211176107bf576040526002835260403685850137600b87015461137784612442565b52600d870154908351600110156114f15761140a928592604086015260018060a01b037f9e7b61f58c47dc699ac88507c4f5bb9f121c03808c5676a8078fe583e46497025416905f6040518096819582946378542ead60e01b8452606060048501526113fb8d6113eb8d6064880190612576565b9084878303016024880152612160565b91848303016044850152612160565b03925af19081156111af575f916114bb575b50156114a95761145e7fc6366bab028b8d033cb362cfd1f2f3457ef4e92fc738b6788b90d5a7846367a09161146b604051928392604084526040840190612576565b8281038684015286612160565b0390a16040828051810103126102095781015191821680920361020957604001519163ffffffff831680930361020957600691600482015501555f80f35b60405163cf6c44e960e01b8152600490fd5b90508281813d83116114ea575b6114d28183611ff6565b8101031261020957518015158103610209578661141c565b503d6114c8565b634e487b7160e01b5f52603260045260245ffd5b506002548110611331565b34610209575f3660031901126102095761152861254b565b5f80546001600160a01b0319811682556001600160a01b03167f8be0079c531659141344cd1fd0a4f28419497f9722a3daafe3b4186f6b6457e08280a3005b34610209575f366003190112610209576020600c54604051908152f35b346102095760a0366003190112610209576004356001600160401b038111610209576115b4903690600401612068565b6024356001600160401b038111610209576115d3903690600401612068565b6115db612528565b6115e78251151561221a565b6115f38151151561225e565b61160060443515156122aa565b6001600160401b0360443511611a2e57606435159061161f82156122f6565b61162c6084351515612342565b600254916116398361238e565b600255606435620151808181029291830414171561118c5761165b90426123af565b5f8051602061287a83398151915254604051639cd07acb60e01b8152604480356001600160401b03166004830152600560248301529091602091839182905f906001600160a01b03165af19081156111af575f916119fc575b506116c663ffffffff6064351661265a565b906116d863ffffffff6084351661265a565b926116e330836126a9565b6116ed30846126a9565b6116f730856126a9565b6040519461170486611fc7565b8686523360208701528760408701526060860152604435608086015260643560a086015260843560c086015260843560e08601526001610100860152426101208601526101408501526101608401526101808301526101a0820152815f52600460205260405f2090805182556001820160018060a01b036020830151166001600160601b0360a01b82541617905560408101518051906001600160401b0382116107bf5781906117b76002860154612086565b601f81116119ac575b50602090601f831160011461193e575f92611933575b50508160011b915f199060031b1c19161760028301555b60608101518051906001600160401b0382116107bf576118106003850154612086565b601f81116118ef575b50602090601f8311600114611896579180600d94926101a0945f926110025750508160011b915f199060031b1c19161760038501556080810151600485015560a0810151600585015560c0810151600685015560e08101516007850155610f606101008201511515600886019060ff801983541691151516179055565b90600385015f5260205f20915f5b601f19851681106118d7575092600d94926001926101a09583601f1981161061104f57505050811b016003850155610f18565b919260206001819286850151815501940192016118a4565b600385015f5260205f20601f840160051c81016020851061192c575b601f830160051c82018110611921575050611819565b5f815560010161190b565b508061190b565b0151905086806117d6565b9250600285015f5260205f20905f935b601f1984168510611991576001945083601f19811610611979575b505050811b0160028301556117ed565b01515f1960f88460031b161c19169055868080611969565b8181015183556020948501946001909301929091019061194e565b909150600285015f5260205f20601f840160051c8101602085106119f5575b90849392915b601f830160051c820181106119e75750506117c0565b5f81558594506001016119d1565b50806119cb565b90506020813d602011611a26575b81611a1760209383611ff6565b810103126102095751856116b4565b3d9150611a0a565b60405162461bcd60e51b815260206004820152601a60248201527f507269636520657863656564732075696e7436342072616e67650000000000006044820152606490fd5b3461020957602080600319360112610209576001600160a01b03611a95611fb1565b165f52600660205260405f20906040519081602084549182815201935f5260205f20915f905b828210611ad2576104db856104cf81890382611ff6565b835486529485019460019384019390910190611abb565b34610209575f36600319011261020957600d546040516001600160a01b039091168152602090f35b34610209575f366003190112610209576020600b54604051908152f35b34610209575f366003190112610209576020600254604051908152f35b3461020957611b5936611f9b565b9080151580611d21575b15611ce75781151580611cdc575b15611ca2575f526020906004825260405f20905f5260405f209060ff60088201541680611c94575b15611c5757600b80849201549201548215611c47575b8015611c39575b606460018060a01b035f8051602061287a8339815191525416935f60405195869485936385362ee760e01b8552600485015260248401528160448401525af19081156111af575f91611c0c575b50604051908152f35b90508181813d8311611c32575b611c238183611ff6565b81010312610209575182611c03565b503d611c19565b50611c426125d8565b611bb6565b9150611c516125d8565b91611baf565b60405162461bcd60e51b81526004810184905260156024820152744f6666657273206d7573742062652061637469766560581b6044820152606490fd5b5060ff600883015416611b99565b60405162461bcd60e51b815260206004820152601260248201527124b73b30b634b21037b33332b91024a2101960711b6044820152606490fd5b506002548210611b71565b60405162461bcd60e51b8152602060048201526012602482015271496e76616c6964206f66666572204944203160701b6044820152606490fd5b506002548110611b63565b34610209575f366003190112610209576020600a54604051908152f35b346102095760203660031901126102095760043560085481101561020957610401602091611f51565b34610209575f36600319011261020957604051806008549182815260208091019260085f527ff3f7a9fe364faab93b216da50a3214154f22a0a2b415b23a84c8169e8b636ee3915f905b828210611dd3576104db856104cf81890382611ff6565b835486529485019460019384019390910190611dbc565b34610209575f366003190112610209576020600354604051908152f35b34610209575f366003190112610209576020600954604051908152f35b346102095760203660031901126102095760043580151580611f0b575b611e4a9061219e565b5f8181526004602052604090206001810180546001600160a01b0392600891841633148015611eff575b611e7d906121dd565b01805460ff811615611ec15760ff19169055611e988361248b565b5416907f7396d7b9b9d06aed97fc917b68d0d07e75b3a6b21f7db9057b9c363a899266715f80a3005b60405162461bcd60e51b81526020600482015260166024820152754f6666657220616c726561647920696e61637469766560501b6044820152606490fd5b505f5484163314611e74565b506002548110611e41565b60209060206040818301928281528551809452019301915f5b828110611f3d575050505090565b835185529381019392810192600101611f2f565b6008548110156114f15760085f527ff3f7a9fe364faab93b216da50a3214154f22a0a2b415b23a84c8169e8b636ee301905f90565b80548210156114f1575f5260205f2001905f90565b6040906003190112610209576004359060243590565b600435906001600160a01b038216820361020957565b6101c081019081106001600160401b038211176107bf57604052565b6001600160401b0381116107bf57604052565b90601f801991011681019081106001600160401b038211176107bf57604052565b6001600160401b0381116107bf57601f01601f191660200190565b92919261203e82612017565b9161204c6040519384611ff6565b829481845281830111610209578281602093845f960137010152565b9080601f830112156102095781602061208393359101612032565b90565b90600182811c921680156120b4575b60208310146120a057565b634e487b7160e01b5f52602260045260245ffd5b91607f1691612095565b9060405191825f82546120d081612086565b908184526020946001916001811690815f1461213e5750600114612100575b5050506120fe92500383611ff6565b565b5f90815285812095935091905b8183106121265750506120fe93508201015f80806120ef565b8554888401850152948501948794509183019161210d565b925050506120fe94925060ff191682840152151560051b8201015f80806120ef565b91908251928382525f5b84811061218a575050825f602080949584010152601f8019910116010190565b60208183018101518483018201520161216a565b156121a557565b60405162461bcd60e51b815260206004820152601060248201526f125b9d985b1a59081bd999995c88125160821b6044820152606490fd5b156121e457565b60405162461bcd60e51b815260206004820152600e60248201526d139bdd08185d5d1a1bdc9a5e995960921b6044820152606490fd5b1561222157565b60405162461bcd60e51b81526020600482015260156024820152745469746c652063616e6e6f7420626520656d70747960581b6044820152606490fd5b1561226557565b60405162461bcd60e51b815260206004820152601b60248201527f4465736372697074696f6e2063616e6e6f7420626520656d70747900000000006044820152606490fd5b156122b157565b60405162461bcd60e51b815260206004820152601c60248201527f5072696365206d7573742062652067726561746572207468616e2030000000006044820152606490fd5b156122fd57565b60405162461bcd60e51b815260206004820152601f60248201527f4475726174696f6e206d7573742062652067726561746572207468616e2030006044820152606490fd5b1561234957565b60405162461bcd60e51b815260206004820152601c60248201527f536c6f7473206d7573742062652067726561746572207468616e2030000000006044820152606490fd5b5f19811461118c5760010190565b8181029291811591840414171561118c57565b9190820180921161118c57565b60085490600160401b8210156107bf576123df8260016120fe9401600855611f51565b90919082549060031b91821b915f19901b1916179055565b90815491600160401b8310156107bf57826123df9160016120fe95018155611f86565b9092612433606093969594608084526080840190612160565b95602083015260408201520152565b8051156114f15760200190565b9190820391821161118c57565b3d15612486573d9061246d82612017565b9161247b6040519384611ff6565b82523d5f602084013e565b606090565b5f5b600890815491828210156125225783926124a683611f51565b959054600396871b1c146124c157505060019192500161248d565b9092505f199182820191821161118c576123df6124e06124ec93611f51565b905490871b1c91611f51565b8154801561250e5781019261250084611f51565b81939154921b1b1916905555565b634e487b7160e01b5f52603160045260245ffd5b50505050565b600260015414612539576002600155565b604051633ee5aeb560e01b8152600490fd5b5f546001600160a01b0316330361255e57565b60405163118cdaa760e01b8152336004820152602490fd5b9081518082526020808093019301915f5b828110612595575050505090565b835185529381019392810192600101612587565b466001036125b657600190565b4662aa36a7036125c65761271190565b617a6946146125d3575f90565b5f1990565b5f8051602061287a83398151915254604051639cd07acb60e01b81525f60048201819052600560248301529091602091839160449183916001600160a01b03165af19081156111af575f9161262b575090565b90506020813d602011612652575b8161264660209383611ff6565b81010312610209575190565b3d9150612639565b60205f91604460018060a01b035f8051602061287a8339815191525416916040519485938492639cd07acb60e01b84526004840152600460248401525af19081156111af575f9161262b575090565b5f8051602061289a833981519152546001600160a01b031691823b1561020957604051635ca4b5b160e11b815260048101929092526001600160a01b03166024820152905f908290818381604481015b03925af180156111af5761270a5750565b6120fe90611fe3565b5f8051602061287a8339815191525460405163045fc19560e11b81526004810192909252336024830152608060448301526001600160a01b03939260209183919086169082905f90829061276b906084830190612160565b6004606483015203925af19081156111af575f916127c9575b5080925f8051602061289a8339815191525416803b1561020957604051630f8e573b60e21b815260048101929092523360248301525f908290818381604481016126f9565b90506020813d6020116127f3575b816127e460209383611ff6565b8101031261020957515f612784565b3d91506127d7565b60405190604082018281106001600160401b038211176107bf57604052600182526020368184013761282c82612442565b525f8051602061289a833981519152546001600160a01b0316803b1561020957604051637d6e912360e11b815260206004820152915f9183918290849082906126f990602483019061257656fe9e7b61f58c47dc699ac88507c4f5bb9f121c03808c5676a8078fe583e46497019e7b61f58c47dc699ac88507c4f5bb9f121c03808c5676a8078fe583e4649700a2646970667358221220c1ba55b0259be76c0a266233c603fa9374b9cf214220c376c89397b053820b8764736f6c63430008180033",
  "linkReferences": {},
  "deployedLinkReferences": {}
}